:100000000C9477010C949F010C949F010C949F0118
:100010000C949F010C949F010C949F010C949F01E0
:100020000C949F010C949F010C94240F0C94AB0F23
:100030000C949F010C949F010C949F010C949F01C0
:100040000C949F010C949F010C949F010C949F01B0
:100050000C949F010C949F010C949F010C94E60951
:100060000C949F010C949F010C949F010C949F0190
:100070000C949F010C949F010C949F010C949F0180
:100080000C949F010C949F010C949F010C949F0170
:100090000C94C4050C949F010C949F010C949F0137
:1000A0000C949F010C949F010C949F010000000090
:1000B000240027002A002D00300000000000250049
:1000C00028002B002E003100000000002300260035
:1000D00029002C002F000404040404030405020278
:1000E00002020403020202020606060606060404D1
:1000F00002020204040802011040804010204080E7
:10010000408008020401804020100201108010206D
:1001100040400000000200080E0000030401000B34
:1001200000000000000000000000000000000000CF
:10013000070605040100080A0B0C0D09080B000254
:10014000020201000904000001020200000524006F
:100150001001052401010104240206052406000102
:100160000705810310004009040100020A00000095
:100170000705020240000007058302400000040357
:1001800009042203550053004200200049004F009B
:10019000200042006F006100720064002000200017
:1001A00020002000180355006E006B006E006F00E9
:1001B00077006E00200020002000200012010002C5
:1001C00000000040EB03F42F0001010200011201C6
:1001D000000202000040EB03F42F000101020001C5
:1001E00000C18081C105010902A1010901A10085A9
:1001F00001050919012903150025019503750181E0
:100200000295017505810305010930093109381589
:1002100081257F750895038106C0C005010906A1E7
:10022000018502050719E029E715002501750195EB
:10023000088102950175088103950675081500254A
:10024000650507190029658100C009040200010342
:100250000000000921010100012265000705840357
:1002600040000100000000000000002A2B280000D0
:10027000000000000000000000000000000000007E
:100280000000002C9EB4A0A1A2A434A6A7A5AE365F
:100290002D3738271E1F20212223242526B333B6CD
:1002A0002EB7B89F8485868788898A8B8C8D8E8FA0
:1002B000909192939495969798999A9B9C9D2F31A3
:1002C00030A3AD350405060708090A0B0C0D0E0F07
:1002D000101112131415161718191A1B1C1DAFB183
:1002E000B0B50000A10160043E0B600E2E11112478
:1002F0001FBECFEFDAE0DEBFCDBF12E0A0E0B1E07D
:10030000EEE4F5E202C005900D92AA35B107D9F7E7
:1003100013E0AAE5B2E001C01D92A739B107E1F7E9
:1003200012E0CEEED2E004C02297FE010E94A1129C
:10033000C43ED107C9F70E949A0D0C94A5120C94E3
:1003400000008AE592E06AE10E9473070895AF9287
:10035000BF92CF92DF92EF92FF920F931F93DF93A2
:10036000CF93CDB7DEB728970FB6F894DEBF0FBE98
:10037000CDBF83E793E060E071E00E94870D8AE5DE
:1003800092E00E945008182F83E793E062E171E049
:100390000E94840D83E793E0612F70E040E150E01C
:1003A0000E94650D8AE592E00E9477075E0108943D
:1003B000A11CB11C8AE592E0B5010E947108082FCA
:1003C000811101E083E793E066E271E00E94840D11
:1003D00083E793E0602F70E040E150E00E94650DFC
:1003E0000023D9F483E793E06BE371E00E94870D6B
:1003F0008AE592E00E94770728960FB6F894DEBF50
:100400000FBECDBFCF91DF911F910F91FF90EF9065
:10041000DF90CF90BF90AF9008956AE070E080E0E9
:1004200090E00E943A0A83E793E06EE471E00E9454
:10043000840D6AE070E080E090E00E943A0A8981D1
:100440008B33C9F08C3328F4833231F08832C1F415
:1004500008C08234A9F40AC083E793E06CE571E038
:1004600013C083E793E064E671E00EC083E793E096
:100470006CE671E009C083E793E065E771E004C0D2
:1004800083E793E06EE771E00E94840D6AE070E01C
:1004900080E090E00E943A0A83E793E066E871E02A
:1004A0000E94840D6AE070E080E090E00E943A0AC9
:1004B00083E793E0698140E150E00E94E20C83E72A
:1004C00093E06BE871E00E94840D83E793E06A811A
:1004D00040E150E00E94E20C83E793E06BE871E0BA
:1004E0000E94840D83E793E06B8140E150E00E941D
:1004F000E20C83E793E06BE871E00E94840D83E7F0
:1005000093E06C8140E150E00E94E20C83E793E0CD
:100510006BE871E00E94840D83E793E06D8140E118
:1005200050E00E94E20C83E793E06BE871E00E94E8
:10053000840D83E793E06E8140E150E00E94E20C7D
:1005400083E793E06BE871E00E94840D83E793E01A
:100550006F8140E150E00E94E20C83E793E06BE89A
:1005600071E00E94840D83E793E0688540E150E0EC
:100570000E94F40C8AE592E00E9450088AE592E01D
:10058000B5010E9431088AE592E064E40E941508F2
:1005900064E670E080E090E00E943A0A8AE592E02A
:1005A0000E9450088AE592E0B5010E9431088AE570
:1005B00092E06EEB0E9415088AE592E00E94F10736
:1005C000082F8AE592E00E94F107182F83E793E055
:1005D0006DE871E00E94840DD12ECC249601200F8D
:1005E000311DF901E070F078309719F030952195C0
:1005F0003F4FC90164E070E00E9456127B01C901BF
:10060000880F991F820F931F880F991FE80EF91EFC
:10061000C70164E670E00E9456128C01EF2B31F0A6
:1006200083E793E06EE971E00E94840DC70164E600
:1006300070E00E94561283E793E04AE050E00E9487
:10064000520D83E793E060EA71E00E94840D0A3066
:10065000110534F483E793E062EA71E00E94840DAF
:1006600083E793E0B8014AE050E00E94650DA2CE16
:100670001F93CF93DF9383E793E064EA71E00E94D6
:10068000870D10E0C0E0D0E08CEA92E0612F0E947C
:1006900026048CEA92E00E94EB04882309F040C013
:1006A0006AE070E080E090E00E943A0A83E793E01D
:1006B0006EE471E00E94840D6AE070E080E090E0FA
:1006C0000E943A0A83E793E064EB71E00E94840D94
:1006D0006AE070E080E090E00E943A0A103130F465
:1006E00083E793E062EA71E00E94840D83E793E080
:1006F000612F40E150E00E94E20C21961A3149F44A
:1007000083E793E062EC71E00E94870D0E94A701ED
:100710001EC083E793E064ED71E00E94870D17C06F
:100720008430A9F483E793E065ED71E00E94840DC5
:10073000103130F483E793E062EA71E00E94840DA7
:1007400083E793E0612F40E150E00E94F40C1F5FCB
:10075000103809F099CFCD2B29F483E793E060EFAF
:1007600071E004C083E793E065E072E00E94870DCA
:1007700080911A0261E00E94B30962E370E080E0B8
:1007800090E00E943A0A80911C0261E00E94B30945
:1007900062E370E080E090E00E943A0A80911E02DD
:1007A00061E00E94B30962E370E080E090E00E94A3
:1007B0003A0A80911A0260E00E94B30962E370E095
:1007C00080E090E00E943A0A80911C0260E00E9462
:1007D000B30962E370E080E090E00E943A0A809101
:1007E0001E0260E00E94B30962E370E080E090E0E6
:1007F0000E943A0ADF91CF911F9108950F931F93A2
:1008000080911A0261E00E94260980911C0261E039
:100810000E94260980911E0261E00E9426098CEA4E
:1008200092E00E94000503E713E0C80160E072EC6B
:100830000E94F30AC8016AE072E00E94870D8AE50F
:1008400092E00E9498071F910F91089581E0809394
:10085000AB02609388021092A9021092AA02089536
:100860002091870230E080918602281B3109C9015E
:1008700008954091860280918702481718F02FEF63
:100880003FEF0AC0E42FF0E0EA59FD4F8081282FA6
:1008900030E04F5F40938602C9010895E0918602DF
:1008A00080918702E81718F0EFEFFFEF06C0F0E045
:1008B000EA59FD4F8081E82FF0E0CF0108950895B7
:1008C0001092AF021092AE0288EE93E0A0E0B0E08A
:1008D0008093B0029093B102A093B202B093B3029E
:1008E0008EE292E09093AD028093AC020895CF9295
:1008F000DF92EF92FF920F931F93CF93DF937C01D0
:100900006B018A018091AB028823A1F0C0E0D0E0A6
:100910000DC0D701ED91FC91D601AC0FBD1F019028
:10092000F081E02DC7016C9109952196C017D10780
:1009300080F304C0CB01642F0E94A905C801DF9198
:10094000CF911F910F91FF90EF90DF90CF9008957E
:10095000DF93CF930F92CDB7DEB7FC01698380910F
:10096000AB028823C9F08091AA02803238F081E07E
:1009700090E09383828320E030E015C08091A9024B
:10098000E82FF0E0E757FD4F998190838F5F8093C8
:10099000A9028093AA0205C0CE01019661E00E94DF
:1009A000A90521E030E0C9010F90CF91DF910895B2
:1009B0000F93062F8091880269E872E04091AA02A5
:1009C00021E00E9454051092A9021092AA021092EE
:1009D000AB020F91089561E00E94D804089541325E
:1009E00008F040E2862F66E672E00E940B05109246
:1009F000860280938702089521E00E94EF04089503
:100A000010928602109287021092A9021092AA02F6
:100A10000E9455070895382F413210F040E042C03F
:100A20008091B8028823E1F791E09093B802209377
:100A3000BA028FEF809325031092E0024150409359
:100A4000E1024F5F9093B9028091B902330F832B7B
:100A50008093B9028091BB02813041F41092BB02B5
:100A60008091B9028093BB0085EC01C085EE809334
:100A7000BC008091B8028130E1F38091E0028417DC
:100A800010F44091E00220E030E00AC0FB01E20FE8
:100A9000F31FD901A054BD4F8C9180832F5F3F4F2E
:100AA0002417A0F3842F08950F931F93582F122F0C
:100AB000413210F081E04AC08091B8028823E1F70A
:100AC00082E08093B8020093BA028FEF80932503EF
:100AD0001092E0024093E102A0ECB2E0FB0102C000
:100AE00081918D938E2F861B8417D0F31092B902BB
:100AF0008091B902550F852B8093B9028091BB027A
:100B0000813041F41092BB028091B9028093BB0006
:100B100085EC01C085EE8093BC00112321F080910B
:100B2000B8028230E1F3809125038F3F11F480E019
:100B30000DC080912503803211F482E007C08091BE
:100B40002503803311F084E001C083E01F910F91F1
:100B50000895482F613210F081E008958091B80225
:100B6000843011F082E0089560930303A2EEB2E0B6
:100B7000842F9C01F90102C081918D938E2F841BDB
:100B80008617D0F380E008951F920F920FB60F9250
:100B900011242F933F934F935F936F937F938F9382
:100BA0009F93AF93BF93EF93FF938091B90090E031
:100BB000887F90708036910509F4F2C081369105E6
:100BC000CCF58832910509F47BC089329105B4F4E3
:100BD0008031910509F46FC0813191053CF4009793
:100BE00009F447C1089709F04FC165C088319105E4
:100BF00009F466C0809709F047C182C0803491052E
:100C000009F4A4C08134910544F48033910509F4BA
:100C100082C0C89709F038C189C08035910509F4B0
:100C200089C08835910509F496C08834910509F08A
:100C30002BC1AEC08839910509F413C189399105DA
:100C4000ECF48837910509F4ABC0893791054CF471
:100C50008836910509F4A4C08037910509F014C1C4
:100C60009FC08838910509F4FCC08039910509F4CA
:100C70009DC08038910509F007C198C0803B91055F
:100C800009F4C6C0813B91054CF4803A910509F402
:100C90009FC0883A910509F0F7C0BAC0803C910521
:100CA00009F4E3C0883C910509F4DFC0883B910555
:100CB00009F0EAC0C2C08091B9028093BB00CFC0E6
:100CC0009091E0028091E102981768F49091E0021F
:100CD000E92FF0E0E054FD4F80818093BB009F5FDF
:100CE0009093E002BCC08091BA02882309F44BC003
:100CF00085ED8093BC008091BC0084FDFCCFC2C018
:100D000080E28093250385ED8093BC008091BC0038
:100D100084FDFCCFB7C080E38093250385ED8093ED
:100D2000BC008091BC0084FDFCCFACC088E3809304
:100D300025039BC08091E0029091BB00E82FF0E07A
:100D4000E054FD4F90838F5F8093E0029091E0022A
:100D50008091E10282C08091E0029091BB00E82F77
:100D6000F0E0E054FD4F90838F5F8093E00280912C
:100D7000BA02882341F085ED8093BC008091BC00CD
:100D800084FDFCCF7FC081E08093BB0284EA6EC00B
:100D900085ED8093BC008091BC0084FDFCCF72C0C7
:100DA00083E08093B8021092240359C080912403F9
:100DB000803208F056C0809124039091BB00E82F48
:100DC000F0E0EC5FFC4F90838F5F8093240347C07B
:100DD00080912403803230F4E0912403F0E0EC5F52
:100DE000FC4F108285ED8093BC008091BC0084FD97
:100DF000FCCF1092B80260912403E091BE02F09102
:100E0000BF0284E093E070E00995109224032DC0A6
:100E100084E08093B8021092020310920303E091E1
:100E2000BC02F091BD02099580910303882329F447
:100E300081E0809303031092E20290910203E92F74
:100E4000F0E0EE51FD4F80818093BB009F5F909357
:100E500002039091020380910303981710F485EC2C
:100E600001C085E88093BC000FC085EC8093BC0076
:100E700009C01092250385ED8093BC008091BC00D1
:100E800084FDFCCF1092B802FF91EF91BF91AF911A
:100E90009F918F917F916F915F914F913F912F9192
:100EA0000F900FBE0F901F9018951092B80281E01E
:100EB0008093BA021092BB0282E061E00E94B30903
:100EC00083E061E00E94B309E9EBF0E080818E7F6E
:100ED000808380818D7F808380E28093B80085E469
:100EE0008093BC000895FC01686160830895FC0153
:100EF0001386128680E012828F5F31968830D9F790
:100F000008950F931F93FC010CEA12E0C801608161
:100F100041E00E94FC04C8010E9439041F910F9116
:100F20000895FC018CEA92E060810E9426040895F5
:100F30000F931F93FC0111820E9491070CEA12E0AB
:100F4000C80160EF0E94A804C8010E94EB041F9131
:100F50000F910895FF920F931F93F62E0E94910711
:100F60000CEA12E0C80161EE0E94A804C8016F2DCE
:100F70000E94A804C8010E94EB041F910F91FF90EA
:100F80000895CF93DF93EC01662319F060EF0E9480
:100F9000AA07CE010E948107DF91CF910895FF92A9
:100FA0000F931F93CF93DF938C01F62EC8EED3E0FF
:100FB0000AC0219721F481E0F80181830BC084E10C
:100FC00090E00E94930AC8016F2D0E94C107982FDC
:100FD00080FDEFCF892FDF91CF911F910F91FF906F
:100FE0000895EF92FF920F931F937C0161E00E949E
:100FF000CF07C7010E9491070CEA12E0C80166E919
:101000000E94A804C8010E94EB04C70160E00E948E
:10101000CF07C70161EE0E94AA07C7010E9481079E
:101020001F910F91FF90EF900895FF920F931F93E0
:101030008C01F62E61E00E94CF07C8010E94910743
:101040000CEA12E0C80165EA0E94A804C8016F2DED
:101050000E94A804C8010E94EB041F910F91FF9009
:101060000895EF92FF920F931F93CF93DF938C011C
:101070007B0165E50E941508C0E0D0E0F701EC0FA8
:10108000FD1FC80160810E9415082196C830D10556
:10109000A9F7DF91CF911F910F91FF90EF900895E5
:1010A000EF92FF920F931F937C0161E00E94CF07A4
:1010B000C7010E9491070CEA12E0C80164EB0E948C
:1010C000A804C8010E94EB04C70160E00E94CF079A
:1010D00090E09695879581701F910F91FF90EF900A
:1010E00008954F925F926F927F929F92AF92BF92BC
:1010F000CF92DF92EF92FF920F931F93CF93DF93E4
:10110000EC013B018B85882309F08FC0CE010E9442
:101110005008882309F489C0CE0161E00E94CF07FE
:10112000CE0160EF0E9415089924EE24FF2451E0BF
:10113000452E512C0E2D0F5F670143E0D594C794C7
:101140004A95E1F7C70187709070520102C0AA0C5E
:10115000BB1C8A95E2F78A85081730F4FE01EC0D76
:10116000FD1D12811A2104C010E0081709F411E0D6
:10117000CE0160E00E94CF07CE010E9491078CEA69
:1011800092E068E70E94A804112319F460E070E07F
:1011900002C060E870E08CEA92E00E94A8048CEA49
:1011A00092E00E94EB04CE0160E00E94CF07982FEE
:1011B0009074282F207885FF03C0992331F035C023
:1011C000992319F4222349F002C0222339F0FE01A9
:1011D000EC0DFD1D82818A2908C0902EFE01EC0DC8
:1011E000FD1D8A2D80959281892382830894E11CBC
:1011F000F11C80E4E816F10409F09CCF9A8699204E
:1012000011F481E08B87DE0120E030E0F301E20F92
:10121000F31F12968C91129780832F5F3F4F119688
:101220002830310599F781E001C080E0DF91CF914E
:101230001F910F91FF90EF90DF90CF90BF90AF90F4
:101240009F907F906F905F904F900895CF93DF9322
:10125000482F50E0CA018C509F4FFC0134914A52F4
:101260005F4FFA018491882369F190E0880F991FFC
:10127000FC01E455FF4FA591B491FC01E654FF4FEA
:10128000C591D491662351F42FB7F8948C91932F84
:10129000909589238C93888189230BC0623061F4F7
:1012A0002FB7F8948C91932F909589238C938881F4
:1012B000832B88832FBF06C09FB7F8948C91832B14
:1012C0008C939FBFDF91CF910895883071F1893061
:1012D00068F4823031F1833020F4813009F042C06B
:1012E0001DC0833089F08430E9F512C08B3059F18C
:1012F0008C3028F48930E9F08A30A1F51EC08C309A
:1013000031F18E3079F529C0809180008F7703C04C
:10131000809180008F7D80938000089584B58F77C1
:1013200002C084B58F7D84BD0895809190008F7731
:1013300007C0809190008F7D03C080919000877FCF
:101340008093900008958091C0008F7703C08091B2
:10135000C0008F7D8093C00008958091C200877F78
:101360008093C2000895FF920F931F93F62E482F8B
:1013700050E0CA018E5E9E4FFC012491CA018C5040
:101380009F4FFC0114914A525F4FFA0104910023D0
:10139000C9F0222319F0822F0E946509E02FF0E0A6
:1013A000EE0FFF1FE654FF4FA591B4919FB7F8943D
:1013B000FF2021F48C911095812302C08C91812B08
:1013C0008C939FBF1F910F91FF9008951F920F92D2
:1013D0000FB60F9211242F933F934F935F936F9308
:1013E0007F938F939F93AF93BF9320912A03309164
:1013F0002B0340912C0350912D0370912E03DA01A1
:10140000C9010296A11DB11D672F6A5F6D3730F0CB
:101410006D57DA01C9010396A11DB11D60932E031A
:1014200080932A0390932B03A0932C03B0932D0356
:101430008091260390912703A0912803B09129035E
:101440000196A11DB11D8093260390932703A093BD
:101450002803B0932903BF91AF919F918F917F9102
:101460006F915F914F913F912F910F900FBE0F9011
:101470001F9018959B01AC017FB7F89480912603CB
:1014800090912703A0912803B091290366B5A89BEA
:1014900005C06F3F19F00196A11DB11D7FBFBA2F86
:1014A000A92F982F8827860F911DA11DB11D63E0DC
:1014B000880F991FAA1FBB1F6A95D1F7BC012DC0C9
:1014C000FFB7F8948091260390912703A0912803F9
:1014D000B0912903E6B5A89B05C0EF3F19F001962E
:1014E000A11DB11DFFBFBA2FA92F982F88278E0FDE
:1014F000911DA11DB11DE3E0880F991FAA1FBB1FFD
:10150000EA95D1F7861B970B885E9340C8F221506D
:1015100030404040504068517C4F21153105410515
:10152000510571F60895019739F0019729F0880F58
:10153000991F01970197F1F70895789484B5826017
:1015400084BD84B5816084BD85B5826085BD85B567
:10155000816085BDEEE6F0E0808181608083E1E816
:10156000F0E010828081826080838081816080834E
:10157000E0E8F0E0808181608083E1E9F0E0808153
:1015800082608083808181608083E0E9F0E08081F7
:1015900081608083E1ECF0E08081846080838081E1
:1015A00082608083808181608083E3ECF0E08081D1
:1015B00081608083E0ECF0E0808182608083E2ECF7
:1015C000F0E0808181608083EAE7F0E080818460E0
:1015D000808380818260808380818160808380813C
:1015E000806880830895089520916F03309170037F
:1015F0008091710390917203281B390B2F73307007
:10160000C901089520916F03309170038091710397
:10161000909172032817390719F42FEF3FEF09C093
:10162000E0917103F0917203E15DFC4F8081282FFE
:1016300030E0C901089520916F03309170038091CB
:101640007103909172032817390719F42FEF3FEFB8
:1016500013C0E0917103F0917203E15DFC4F2081B2
:10166000809171039091720301968F7390709093A3
:1016700072038093710330E0C901089510927603DC
:101680001092750388EE93E0A0E0B0E080937703BA
:1016900090937803A0937903B0937A038EE392E05A
:1016A000909374038093730308950F931F93DF93B4
:1016B000CF930F92CDB7DEB78C016983809127025B
:1016C000882369F083E0BE016F5F7F4F41E050E007
:1016D0000E947F0E1816190614F49C0107C081E0C1
:1016E00090E0F8019383828320E030E0C9010F90FD
:1016F000CF91DF911F910F91089583E00E94560EC4
:101700000895CF93DF9312C082E00E94E10D2FEF86
:101710008F3F9207C9F0E0916F03F0917003E15D94
:10172000FC4F8083D0937003C0936F03C0916F030D
:10173000D09170032196CF73D070809171039091F6
:101740007203C817D90701F7DF91CF910895FC0103
:1017500080818E5F808380E86CE371E042E450E03A
:101760000E94FA0D0895FC0181819081913A59F40B
:10177000813209F04CC080E060E272E047E050E066
:101780000E94FA0D42C0913209F041C0803239F412
:1017900080E292E067E070E00E943E0E36C0823246
:1017A00009F035C0828180932702809120029091B8
:1017B0002102A0912202B0912302805B9440A040BC
:1017C000B04019F58091270280FD12C087E797E7A6
:1017D00090930108809300082BE088E190E00FB619
:1017E000F894A895809360000FBE209360000DC010
:1017F00088E10FB6F89480936000109260000FBEED
:10180000A895109201081092000881E0089580E0E8
:101810000895CF92DF92EF92FF920F931F93CF9391
:10182000DF937C016B018A01C0E0D0E00FC0D601DC
:101830006D916D01D701ED91FC910190F081E02D4A
:10184000C7010995C80FD91F015010400115110596
:1018500071F7CE01DF91CF911F910F91FF90EF9023
:10186000DF90CF900895EF92FF920F931F938C011A
:10187000DC01ED91FC910190F081E02D6DE0099586
:101880007C01D801ED91FC910190F081E02DC8011F
:101890006AE009959C012E0D3F1DC9011F910F9112
:1018A000FF90EF900895CF93DF93EC0161157105E0
:1018B00019F420E030E00FC0DB010D900020E9F7C3
:1018C0001197A61BB70BE881F9810280F381E02D07
:1018D000AD0109959C01C901DF91CF9108954F9207
:1018E0005F927F928F929F92AF92BF92CF92DF9240
:1018F000EF92FF920F931F93DF93CF93CDB7DEB795
:10190000A1970FB6F894DEBF0FBECDBF2C01742E89
:10191000CB01223008F42AE019A231E2C32ED12CE7
:10192000CC0EDD1E822E9924AA24BB24672D752F90
:10193000A50194010E94691279018A01C801B701C9
:10194000A50194010E943712472D461B0894C10837
:10195000D1084A3014F4405D01C0495CF60140836F
:10196000E114F1040105110521F07E2C5F2DC80161
:10197000DDCFC201B6010E94530CA1960FB6F894B8
:10198000DEBF0FBECDBFCF91DF911F910F91FF90B2
:10199000EF90DF90CF90BF90AF909F908F907F900F
:1019A0005F904F900895DC012115310541F4ED91D0
:1019B000FC910190F081E02D642F099508950E941B
:1019C0006F0C0895EF92FF920F931F939A01E62EEA
:1019D000FF2400E010E0B801A7010E94D30C1F9182
:1019E0000F91FF90EF900895CF92DF92EF92FF92C8
:1019F0000F931F936C01E62E9A01FF2400E010E084
:101A0000B801A7010E94D30C8C01C6010E94330CBF
:101A1000080F191FC8011F910F91FF90EF90DF90E1
:101A2000CF900895CF92DF92EF92FF920F931F9382
:101A3000CF93DF93EC016A017B012115310541F45D
:101A4000E881F9810190F081E02D642F09951FC094
:101A50002A303105D1F477FF17C0E881F981019070
:101A6000F081E02D6DE209958C0144275527BA01DC
:101A70004C195D096E097F09CE012AE00E946F0CA6
:101A80009801280F391F04C02AE00E946F0C9C01A6
:101A9000C901DF91CF911F910F91FF90EF90DF90DF
:101AA000CF900895EF92FF920F931F937B019A01BD
:101AB0000027F7FC0095102FB801A7010E94120D16
:101AC0001F910F91FF90EF900895CF92DF92EF92C8
:101AD000FF920F931F936C017B019A010027F7FC83
:101AE0000095102FB801A7010E94120D8C01C601AC
:101AF0000E94330C080F191FC8011F910F91FF900E
:101B0000EF90DF90CF9008950E94530C0895EF92CC
:101B1000FF920F931F937C010E94530C8C01C7010D
:101B20000E94330C080F191FC8011F910F91FF90DD
:101B3000EF900895CF93DF930E949D0A89E893E088
:101B40000E94610E0E94FE03C0E0D0E00E943803B4
:101B50002097E1F30E940000F9CF282F80918303A2
:101B60008823C1F057FF1AC015C0289890938203AC
:101B70008091F1008193E217F307B9F74115510500
:101B800039F08091F200882319F48BE68093E80005
:101B9000AFBF02C04FEF5FEFCA010895AFB7F8942F
:101BA00027702093E9008091F200282F30E024175D
:101BB00035070CF4A901FB019B01240F311D94E6AC
:101BC000DACFDF93CF930F92CDB7DEB7BE016F5F51
:101BD0007F4F41E050E00E94AD0D019719F02FEFCB
:101BE0003FEF03C08981282F30E0C9010F90CF91CA
:101BF000DF910895FF920F931F93F82E142F052F56
:101C00004091860350918703212F302FC901DC01B9
:101C1000FB016EEF29C0F7FE02C0949101C09081D4
:101C2000209184033091850324173507ACF480910B
:101C3000E8008570E1F38091E80082FF03C02FEF98
:101C40003FEF17C09093F100C90101968F73907018
:101C5000892B11F46093E8002F5F3F4F3093850389
:101C600020938403119731961097A9F6812F902F16
:101C70009C01C9011F910F91FF9008959C018091D3
:101C8000E80082FFFCCFF901260F311D03C08091CF
:101C9000F1008193E217F307D1F7289884E6809347
:101CA00082038BEF8093E800CB0108958093E900D5
:101CB0008091F200882319F08AE38093E800089568
:101CC00008951092830381E08093D70080EA809387
:101CD000D80082E089BD09B400FEFDCF61E070E06C
:101CE00080E090E00E943A0A80E98093D8008CE07E
:101CF0008093E2001092E000559A209A08955F9236
:101D00006F927F928F929F92AF92BF92CF92DF920B
:101D1000EF92FF920F931F93CF93DF93E82E842EC1
:101D2000752E80918303882371F18B01242F352F29
:101D3000C901EC017AEFF72E67E0962E9E2050E461
:101D4000552E8E2D90E040E2A42EB12CA822B9226F
:101D50003AE3632E20E4C22ED12CC822D92258C0E7
:101D60009FB7F8949092E9008091E80085FD02C049
:101D700020E004C08091F200252D281B9FBF222364
:101D800061F4FA9419F42FEF3FEF4DC061E070E079
:101D900080E090E00E943A0A3BC0822F90E0C81792
:101DA000D9070CF42C2FC21BD1094FB7F89490928D
:101DB000E900A114B10421F406C01092F1002150F1
:101DC0002223D9F719C0E7FC03C0F801922F10C0F5
:101DD000C801322F06C0FC010196E491E093F100A6
:101DE00031503323C1F706C081918093F1009150A7
:101DF0009923D1F7020F111D8091E80085FF05C0DE
:101E0000209729F4C114D10411F06092E8004FBF6B
:101E1000209709F0A5CF5D9884E680938103282D53
:101E2000372DC9019C01C901DF91CF911F910F91FD
:101E3000FF90EF90DF90CF90BF90AF909F908F90EA
:101E40007F906F905F9008951F920F920FB60F9240
:101E500011242F933F934F935F936F937F938F93AF
:101E60009F93AF93BF93EF93FF938091E100109204
:101E7000E100982F83FF0FC01092E90081E080936A
:101E8000EB001092EC0082E38093ED00109283034C
:101E900088E08093F00092FF34C083E08093E900F3
:101EA0008091F200882319F08AE38093E8008FB7CD
:101EB000F89492E09093E9009091F2008FBF9923FB
:101EC00021F083E793E00E94810B809181038823B6
:101ED00051F080918103815080938103809181032F
:101EE000882309F45D9A80918203882351F08091C0
:101EF000820381508093820380918203882309F4B6
:101F0000289AFF91EF91BF91AF919F918F917F910F
:101F10006F915F914F913F912F910F900FBE0F9056
:101F20001F9018950F931F93DF93CF930F92CDB708
:101F3000DEB719828E010F5F1F4FC8010E94A70BE9
:101F4000C8010E942B12898190E00F90CF91DF9100
:101F50001F910F9108951F920F920FB60F921124A7
:101F6000EF92FF921F932F933F934F935F936F9343
:101F70007F938F939F93AF93BF93EF93FF93DF93E1
:101F8000CF93CDB7DEB76197DEBFCDBF1092E9002A
:101F90008091E80083FF0FC1FE0131969E01275F0B
:101FA0003F4F03C08091F1008193E217F307D1F70F
:101FB000289884E68093820382EF8093E8009981D9
:101FC00097FF05C08091E80080FFFCCF03C08EEF33
:101FD0008093E800292F30E0C90180769070892B2A
:101FE00009F0C2C08A81882329F41092F10010926E
:101FF000F100D6C0813009F4D3C0833009F4D0C0D9
:10200000853049F48091E80080FFFCCF8B818068A7
:102010008093E300C5C0863009F07CC01C81EF804E
:10202000F8841230C1F51092E900109285031092E5
:10203000840310928703109286030E94920F99E006
:10204000FE013996DF01292F1D922A95E9F799871C
:102050001A8791E09E8790E8988B9AEF998B209150
:10206000840330918503275F3F4F3C872B878D8703
:102070001092E9001092850310928403F092870376
:10208000E092860380E0BF0149E050E00E94FA0D33
:102090000E94920F85C01092E90010928503109261
:1020A0008403F0928703E0928603123241F482E2C5
:1020B00090E00E942312892B09F476C071C0113080
:1020C00079F488E0E816F10419F481E0809388033C
:1020D00080918803882309F06BC0ECEBF1E013C01A
:1020E000133009F061C08B81882319F4EEE7F1E029
:1020F0000AC0823019F4E2E8F1E005C0813009F04D
:1021000053C0E4EAF1E0449180E8BF0150E00E944E
:10211000FA0D46C0873009F447C0883021F481E0C9
:102120008093F1003DC08930D9F523703070232BA6
:10213000D9F5E1EEF1E091E031E026E39093E9009A
:102140003093EB0084918093EC002093ED009F5F2F
:102150003196953099F78EE78093EA001092EA0065
:102160008B81809383031CC08F8198851092E90036
:1021700010928503109284039093870380938603C3
:102180008D81882329F4CE0101960E94B30B06C0ED
:10219000823051F4CE0101960E94F410882321F080
:1021A0008EEF8093E80007C081E28093EB0003C0CC
:1021B000EEECF1E0A8CF6196DEBFCDBFCF91DF910D
:1021C000FF91EF91BF91AF919F918F917F916F910F
:1021D0005F914F913F912F911F91FF90EF900F9042
:1021E0000FBE0F901F901895FC0191818081813A5C
:1021F00031F4913089F080E0933089F40DC0813260
:1022000069F49B3021F482818093280205C09A30C2
:1022100029F482818093290281E0089580E0089565
:10222000EF92FF920F931F938C01E62EDC01ED914C
:10223000FC910480F581E02D0995F82ED801ED91EF
:10224000FC910680F781E02DC8016E2D09958F2D38
:1022500090E01F910F91FF90EF90089510928A03E4
:1022600010928E0310928D0380E592E090938C0380
:1022700080938B030895EF92FF920F931F93DF9348
:10228000CF930F92CDB7DEB789838B017A0184E0BB
:10229000BE016F5F7F4F41E050E00E947F0E84E4FB
:1022A000B801A7010E947F0E0F90CF91DF911F917F
:1022B0000F91FF90EF90089582E048E050E00E9477
:1022C0003B110895FC011682178210861186128632
:1022D000138614823496BF010E945C110895DC01BC
:1022E000683810F0685829C0E62FF0E067FF13C087
:1022F000E058F04081E090E002C0880F991FEA9515
:10230000E2F7809514962C911497282314962C9319
:10231000149760E012C0ED59FD4F6491662319F4E3
:1023200020E030E01DC067FF08C014968C91149720
:102330008D7F14968C9314976F77FD0190E0662340
:1023400021F08681861709F416829F5F31969630B8
:10235000B1F7CD011496BD010E945C1121E030E07F
:10236000C9010895CF93DF93DC01683810F06858F5
:1023700025C0E62FF0E067FF12C0E058F04081E092
:1023800090E002C0880F991FEA95E2F714962C910D
:102390001497282B14962C93149760E00FC0ED59D6
:1023A000FD4F64916623D9F167FF08C014968C91A4
:1023B0001497826014968C9314976F7716968C916D
:1023C00016978617A9F117968C911797861781F1A2
:1023D00018968C911897861759F119968C91199720
:1023E000861731F11A968C911A97861709F11B9668
:1023F0008C911B978617E1F0ED01E0E0F0E09E2F55
:102400008E81882321F4EA0FFB1F668306C09F5F3D
:1024100031962196E630F10591F7963049F481E046
:1024200090E013969C938E93129720E030E007C0C3
:10243000CD011496BD010E945C1121E030E0C9017C
:10244000DF91CF91089580E865EE71E045E650E0B8
:102450000E94FA0D0895FC0180818F5F808380E8DF
:102460006AE472E049E150E00E94FA0D0895629F2B
:10247000D001739FF001829FE00DF11D649FE00D7C
:10248000F11D929FF00D839FF00D749FF00D659FDD
:10249000F00D9927729FB00DE11DF91F639FB00DDC
:1024A000E11DF91FBD01CF011124089597FB092EED
:1024B00007260AD077FD04D02ED006D000201AF4CB
:1024C000709561957F4F0895F6F7909581959F4F90
:1024D0000895A1E21A2EAA1BBB1BFD010DC0AA1F65
:1024E000BB1FEE1FFF1FA217B307E407F50720F07D
:1024F000A21BB30BE40BF50B661F771F881F991FF8
:102500001A9469F760957095809590959B01AC0140
:10251000BD01CF010895AA1BBB1B51E107C0AA1F33
:10252000BB1FA617B70710F0A61BB70B881F991F74
:102530005A95A9F780959095BC01CD010895EE0FAD
:0E254000FF1F0590F491E02D0994F894FFCF51
:10254E005363616E6E696E672031776972652E2EE8
:10255E002E007769726552657365742072657475A5
:10256E00726E656420007769726553656172636887
:10257E002072657475726E656420004E6F206D6FEB
:10258E007265206164647265737365732E00466FA5
:10259E00756E642064657669636520004453323439
:1025AE0042333300445331384232300044533238D0
:1025BE0045413030004D4158333138323600756E5A
:1025CE006B6E6F776E00206F6E20003A0054656D53
:1025DE0070657261747572652069733A20002D0002
:1025EE002E0030005363616E6E696E672049324370
:1025FE002E2E2E0061742061646472657373203018
:10260E0078002C20617373756D696E6720445332A8
:10261E003438320000556E6B6E6F77206572726FB4
:10262E007220617420616464726573732030780067
:10263E004E6F204932432064657669636573206668
:10264E006F756E6400646F6E65004C61756E6368C5
:10265E00696E67207465737473000D0007000500C2
:10266E0000E1000000000000010100000000A804CD
:10267E007704300439044E045F0400000000550B4B
:10268E00090CF40A1B0B020B7D0B810B00000000E2
:0A269E001011090CB2116F11621146
:00000001FF
